:020000040800F2
:10000000D81200209D0100082D230008312200088D
:1000100029230008F5100008252C00080000000026
:10002000000000000000000000000000692300083C
:100030006D110008000000002F2300086B2300084A
:10004000B7010008B7010008B7010008B7010008B0
:10005000B7010008B7010008B7010008B7010008A0
:10006000B7010008B7010008B7010008B701000890
:10007000B7010008B7010008B7010008B701000880
:10008000B7010008B7010008B7010008B701000870
:10009000B7010008B7010008B7010008B701000860
:1000A000B7010008B7010008B7010008B701000850
:1000B000B70100087D2400088D240008B70100085E
:1000C000B7010008B7010008B7010008B701000830
:1000D000B7010008692B0008B7010008A12B000830
:1000E000B7010008B7010008B7010008B701000810
:1000F000B7010008B7010008B7010008B701000800
:10010000B7010008B7010008B7010008B7010008EF
:10011000B7010008B7010008B7010008B7010008DF
:10012000B7010008B7010008B7010008B7010008CF
:10013000B7010008B7010008B7010008B7010008BF
:10014000B7010008B7010008B7010008B7010008AF
:10015000B7010008B7010008B7010008B70100089F
:10016000B7010008B7010008B7010008B70100088F
:10017000B7010008B7010008B7010008000000003F
:10018000B7010008B7010008DFF80CD000F07EFDD1
:100190000048004755740008D812002006488047E0
:1001A00006480047FEE7FEE7FEE7FEE7FEE7FEE75C
:1001B000FEE7FEE7FEE7FEE72924000889010008C4
:1001C0002DE9F05F0546002092469B46884606468C
:1001D000814640241BE0284641464746224600F01F
:1001E000DCFA53465A46C01A914110D311461846BC
:1001F000224600F0C3FA2D1A67EB01084F4622464B
:100200000120002100F0BAFA17EB00094E41201E30
:10021000A4F10104DFDC484631462A464346BDE8E6
:10022000F09FD2B201E000F8012B491EFBD27047CB
:100230000022F6E710B513460A4604461946FFF7B2
:10024000F0FF204610BD30B505462A460B4612F891
:10025000010B13F8014B08B1A042F8D01CB10028E3
:1002600002D06D1CF1E7284630BDCAB2401E10F81E
:10027000011F8A4202D00029F9D1002070472DE9E0
:10028000F04791460F4680460446002614F8015B6D
:100290002DB100F0A5FA0068405DC007F6D12B2D06
:1002A00002D02D2D18D0641E4A463946204600F053
:1002B000A4FA27B13968A14201D1C7F800807105BD
:1002C0004FF002040BD54042002803DD02F0F0FCA1
:1002D0000460A007BDE8F08746F48066E4E70028E4
:1002E000F8DA02F0E5FC04606FF00040F2E72DE977
:1002F000FE4F804681EA0300C00F0C46009021F0BB
:10030000004123F00045B8EB0200A94105D2404668
:10031000214690461C460B46024623F000401043FF
:1003200047D0270DC7F30A00C3F30A510290401AC1
:10033000019040286BDAC3F3130040F4801B00984F
:10034000924620B10023D2EB030A63EB0B0B01981A
:100350005946C0F14002504600F010FA06460D46DC
:1003600050465946019A00F028FA10EB0800614106
:10037000002487EA115284EAE7731A4340D0009AB6
:1003800062B3019A012A4FEA075215DC001B61EBA8
:1003900002014FF0004202EA0752CDE90042001C80
:1003A00041F5801132462B4600F00AFB03B0BDE850
:1003B000F08F40462146F9E7001B61EB0201001C6B
:1003C00041F5801300185B412018A2F5001747EB98
:1003D000030140EAD570B6196D4111E06D084FEA8E
:1003E000360645EAC0754FEA0752001B61EB020171
:1003F000001C41F5801149084FEA300000195141B5
:1004000032462B4603B0BDE8F04F00F0CABA009860
:10041000012240000023D0EB020263EBE07300985E
:1004200021464FEAE074B8EB000061EB0401E9E714
:1004300083F000435BE781F0004158E72DE9FE4F70
:1004400081EA030404F0004421F0004100944FF0DD
:10045000000B23F0004350EA01045ED052EA03048B
:100460005BD0C3F30A54C1F30A552C44A4F2F3340D
:100470000194A0FB0254C1F3130141F48011C3F3B2
:10048000130343F4801301FB024400FB034E840A70
:10049000970A44EA815447EA8357A4FB0768029508
:1004A0008D0A05FB07854FEA932C04FB0C542705A6
:1004B000029D4FEA065847EA1637B5EB08056EEB82
:1004C000070C870E920E47EA811742EA8312A7FBB8
:1004D0000201B6EB0B0164EB00042B0D43EA0C3375
:1004E0005E1844EB1C50DA465146E7FB0201C5F3A7
:1004F00013044FEA0B3343EA14534FEA0432019CCE
:1005000043EA0603A4F10C040294009CCDE900B474
:1005100000F056FA03B0BDE8F08F00200146F9E77D
:100520002DE9F04D81EA030404F0004B21F0004571
:1005300014464FF0000A23F0004150EA050220D093
:1005400054EA01021DD0C5F30A570246C5F313034E
:10055000C1F31300C1F30A5640F4801543F480132D
:10056000A7EB0608101BD64608F2FD3873EB050012
:1005700002D308F1010801E092185B41B8F1000FC5
:1005800003DA00200146BDE8F08D00204FF4801111
:10059000064684460EE0171B73EB050705D3121BB6
:1005A00063EB050306434CEA010C49084FEA3000AF
:1005B00092185B4150EA0107EDD152EA030012D0D4
:1005C00082EA040083EA0501084305D0101BAB4111
:1005D00006D20122002306E000224FF0004302E091
:1005E0006FF0010253101AEB06004CEB085110EBB0
:1005F0000A0041EB0B01BDE8F04D00F0D2B90EB599
:10060000C10F80EAE0700844CA07002140F233437A
:100610008DE80E000A460B4600F0D2F903B000BD8B
:1006200070B5C1F30A5201F000450024C1F3130173
:1006300040F2FF3341F480119A4201DA002070BD8C
:1006400040F233439A42A2F2334203DC524200F0BA
:10065000A4F800E090402C43F1D0404270BDC1F3BB
:100660000A5210B5C1F3130140F2FF3341F4801177
:100670009A4201DA002010BD40F233439A42A2F2BE
:10068000334203DC524200F088F810BD904010BDA8
:1006900000F0004230F000400AD0C10D01F5607159
:1006A000C0F3160042EA0151C208400711437047E7
:1006B000002001467047000030B5041E71F10004AF
:1006C00004DB4FF00044404264EB0101141E73F15F
:1006D000000405DB1C464FF00043524263EB040369
:1006E0008B4208BF824230BD30B5041E71F1000458
:1006F00004DB4FF00044404264EB0101141E73F12F
:10070000000405DB1C464FF00043524263EB040338
:10071000994208BF904230BD01F0004330B421F04F
:10072000004150EA010206D00A0DA2F56072C1F341
:100730001301002A02DC30BC00207047440F44EA59
:10074000C104C100E01830BC00EBC25000F0F2B8A8
:1007500030B50B46014600202022012409E021FA91
:1007600002F59D4205D303FA02F5491B04FA02F58E
:100770002844151EA2F10102F1DC30BD202A04DB61
:10078000203A00FA02F1002070479140C2F12003A4
:1007900020FA03F3194390407047202A04DB203AE3
:1007A00021FA02F00021704721FA02F3D040C2F191
:1007B00020029140084319467047202A06DBCB17D8
:1007C000203A41FA02F043EAE07306E041FA02F30C
:1007D000D040C2F120029140084319467047000002
:1007E00000487047CCB3000810B50446FFF7F8FF87
:1007F0000068005D00F0010010BD2DE9F05F824649
:100800000078002715468B460AF10104B9463028C6
:1008100001D09DB113E014F8010B0127782803D013
:10082000582801D045B10AE00DB1102D07D100279D
:10083000102514F8010B02E0082500E00A25002627
:10084000B0460EE005FB080005FB06F1012701EBB1
:1008500010461FFA80F8B6F5803F00D3B94614F869
:10086000010B294600F024FA0028EBDABBF1000F57
:1008700005D00FB1641E00E05446CBF80040B9F13A
:10088000000F06D002F014FA02210160C81EBDE874
:10089000F09F48EA0640FAE70FB4002300B589B09C
:1008A0000CA900910B996FF00042CB601E4B069390
:1008B0001E4B07930423CDE901321D4A08920246DC
:1008C0006B46002000F096FA09B05DF814FB70B595
:1008D00086B006464FF0FF300091CDE901010020BF
:1008E00015460C4604903246694604A8FFF7D4FF2B
:1008F00002460498211825B108B1084600E02046B8
:100900002860049800280DD0002A02DD0098884253
:1009100008D0081B0094CDE901043246694604A8BA
:10092000FFF7BAFF06B070BD2D1000084B1000088D
:10093000E90700080029A8BF7047401C490008BF0C
:1009400020F00100704710B4B0FA80FC00FA0CF0FF
:1009500050EA010404BF10BC704749B1CCF1200437
:1009600021FA04F411FA0CF118BF012121430843C4
:10097000A3EB0C01CB1D4FEA00614FEA102042BFF0
:10098000002010BC704700EBC35010440029A4BFE6
:1009900010BC7047401C490008BF20F0010010BC8B
:1009A000704710B5141E73F1000408DA401C41F1C1
:1009B000000192185B411A4301D120F0010010BDE3
:1009C0002DE9F04D92469B4611B1B1FA81F202E059
:1009D000B0FA80F220329046FFF7D0FE04460F4670
:1009E00040EA0A0041EA0B0153465A46084313D035
:1009F000114653EA010019D0C8F140025046FFF7F2
:100A0000CCFE05460E46504659464246FFF7B6FE16
:100A1000084305D0012004E020463946BDE8F08DAA
:100A20000020054346EAE0762C4337430A986305E5
:100A3000E40AA0EB08000022FD0A44EA47540A3009
:100A400002D500200146E9E7010510196941DDE9F9
:100A5000084500196941BDE8F04DA2E770B521F0E5
:100A6000004303430CD0C1F30A550024D5EB040521
:100A700064EB0403D617AD1AB34102DB0020014634
:100A800070BD201841EB025170BD2DE9F04D0023DF
:100A90001A461B1A8A4103DB00200146BDE8F08D8F
:100AA000C1F30A52C1F3130141F480154FF0000B5A
:100AB000D10702D100186D41521E0027044640F2B2
:100AC000FF11384601EB620A3E468046024600208E
:100AD0004FF48011FFF761FEC2197141BB1846EB5C
:100AE0000100B4EB030C75EB000C04D3E41A65EBC6
:100AF000000517460E46241908F101006D41804695
:100B00003428E3DDF91946EB0600091BA84103D29E
:100B10004FF0FF32134601E0002213461BEB0700A3
:100B200046EB0A51BDE8F04DFFF73BBF2DE9F04120
:100B3000054621F000400C46284309D0C4F30A5072
:100B400040F23341884205DD28462146BDE8F08168
:100B50002846FBE740F2FE31884210DC0CDB4FEA0E
:100B6000043040EA155050EA053105D0104804F031
:100B7000004101430020E9E700200146E6E7A0F23A
:100B800033404642C6F1400228462146FFF7F6FDB3
:100B900007468846284621463246FFF7FEFD434673
:100BA0003A46FFF7FEFE3246BDE8F041FFF7E6BDEC
:100BB0000000F03FC1F30A52C1F3130140F2FF33CA
:100BC00041F480119A4202DA00200146704740F257
:100BD00033439A42A2F2334202DC5242FFF7DDBDB8
:100BE000FFF7CCBD2DE9F047C1F30A5401F00048EE
:100BF00005460027C1F3130140F2FF3041F480168F
:100C000084421ADAB4F57F7F00DC841EA4F2134418
:100C10006242924628463146FFF7BFFD04465246DF
:100C2000FFF7ACFD45404E40354301D0012000E0C8
:100C3000002044EA000100201BE040F233408442DF
:100C40001ADCA4F2F33228463146FFF797FD0A4634
:100C500078405140084301D0012000E0002040EAE4
:100C6000020AA4F23344624228463146FFF795FD5A
:100C70005146FFF75FFE03E0A4F2334405FA04F0A7
:100C800057EA080700D04042BDE8F087064C074D00
:100C900006E0E06840F0010394E80700984710344C
:100CA000AC42F6D3FFF774FAECB400080CB50008B8
:100CB0003A2800D2303820F02002412A01D3A2F194
:100CC0003700884201D34FF0FF3070472DE9FF4FC6
:100CD000087883B09946FF2805D0491C2D2804D0F8
:100CE0000024002008E000200BE00124F9E700EBDD
:100CF000800003EB4000491C0B78FF2BF7D104B1B7
:100D0000404200230293147819461D462D2C01D031
:100D10002B2C04D1521C2D2C13D000240294AA4653
:100D20001478FF2C0FD00A25A3FB057801FB058161
:100D30004FF0000C03FB0C11521CE3194AEB0101AC
:100D4000EEE70124EAE7814453EA010002D019F5F5
:100D5000C87F06DA03980021C0E9001107B0BDE89A
:100D6000F08F0025AE4E2F46DFF8B882184600F00F
:100D70008AF9CDE90001B9F1000002DAC9F10004F5
:100D800000E004460023A74A1AEB030B42EB045A87
:100D900012E0E00707D02A46334638464146FFF7BF
:100DA0004DFB074688462A46334610461946FFF74C
:100DB00045FB05460E466410002CEAD1DDE9000132
:100DC000B9F1000F5A46534606DAFFF7A9FB3A4637
:100DD0004346FFF7A5FB05E0FFF730FB3A464346E5
:100DE000FFF72CFB029A0AB181F00041039AC2E995
:100DF0000001B3E72DE9FF4F1F468DB0D7E901464B
:100E00004FF0FF382E2045464FF000090B90B9698E
:100E10006D1C0E988847396A824688470028F6D1AB
:100E2000BAF1FF3F0AD024F4D064002E11DDBAF1EC
:100E30002B0F08D0BAF12D0F0BD102E0404611B0B4
:100E40008DE744F48064B9696D1C0E98884782462A
:100E5000761E6946600501D52D2000E02B208DF817
:100E6000000001F1010B0DF1200809E0B9696D1CCA
:100E70000E98884782460F9844F40074761E0560E9
:100E8000002E02DDBAF1300FF0D00B998A453ED129
:100E900044F0800406E00F99681CA9F1010944F4AC
:100EA00000740860B9696D1C761E0E9888478246EA
:100EB0003028F0D02BE00B998A4505D1200603D4C9
:100EC00044F08004761E18E0504604F0C5FA08B3DA
:100ED0000DF11301761E44F400748B4508D2AAF17B
:100EE00030000BF8010B200607D5A9F1010003E043
:100EF000200602D409F101008146A00502D50F9910
:100F0000681C0860B9696D1C0E9888478246002EDF
:100F1000D1DC53E0002E51DDBAF1650F02D0BAF1F9
:100F2000450F4BD1A00549D5B9696D1C24F4407417
:100F3000761E0E9888478246002E0CDD2B2804D0A2
:100F4000BAF12D0F07D144F48074B9696D1C0E9865
:100F500088478246761EE00501D52D2100E02B2131
:100F600008F8011BCDF82C8021E00DF12901761E37
:100F700044F4007488450CD2AAF1300010F0FF0050
:100F800088F8000002D10B99884509D908F10108B9
:100F900006E0E00501D5244801E042F20F708146E9
:100FA000B9696D1C0E98884782460F980560002E1F
:100FB00004DD504604F050FA0028D6D1F9690E98A5
:100FC0008847FF208BF8000088F80000002006907A
:100FD00007904B466A4608A906A8FFF777FEA005CA
:100FE00002D46FF001002AE714F0240F0AD0E007C2
:100FF00014D1DDE906123868031D3B600068C0E9C2
:1010000000120BE0DDE90601FFF786FB0146E00771
:1010100004D13868021D3A600068016028460EE776
:10102000000014400000F03FF1D8FFFF426842B1D9
:10103000016811F8013B23B1521EC0E900121846A5
:1010400070470121C160881E704742685AB1C36869
:10105000016843B983688B4205D0491E521CC0E920
:101060000012002070474FF0FF3070470EB540F27D
:10107000334102910021CDE900110A460B46FFF7EA
:101080009FFC03B000BD0EB540F233420292002235
:10109000CDE900221346FFF793FC03B000BD70B505
:1010A0008C1810F8015B15F0070301D110F8013B13
:1010B0002A1106D110F8012B03E010F8016B01F89A
:1010C000016B5B1EF9D12B0705D40023521E0DD4F2
:1010D00001F8013BFAE710F8013BCB1A921C03E040
:1010E00013F8015B01F8015B521EF9D5A142D8D378
:1010F000002070BD00BFFEE7014840687047000057
:10110000001000E02DE9F0410746002600F0C2FA89
:101110000F49B0FBF1F000FB07F800BFFFF7ECFF51
:10112000054611E0FFF7E8FF0446AC420CD0AC42A4
:1011300002D9601B064403E0C5F1FF302044064499
:101140002546464500D300E0ECE700BFBDE8F0814E
:1011500040420F0010B503A001F066FD02A001F0AF
:1011600063FD10BD6F6B00000A00000070470000B7
:1011700010B509F07FF806A001F056FD0748016898
:10118000491C07A001F050FDFFF7E4FF10BD00006F
:10119000526573656E643A2000000000B0000020C4
:1011A00025640A00014691F83500022803D080200A
:1011B000486501207047052081F8350008680068FF
:1011C00020F001000A6810600020F3E7F8B502463D
:1011D0000B460025002400200021DCE0012606FA51
:1011E00001F51E6806EA0504AC4273D15E68022E62
:1011F00002D05E68122E13D1CF0802F1200656F8F5
:1012000027004E07F70E0F26BE40B0434F07FF0ED4
:101210001E69BE403043CF0802F1200646F8270081
:1012200010684F000326BE40B0431E7906F0030647
:101230004F00BE40304310605E68012E08D05E68EB
:10124000022E05D05E68112E02D05E68122E13D1D8
:1012500090684F000326BE40B0434F00DE68BE409A
:1012600030439060506801268E40B0431E79C6F32B
:1012700000168E4030435060D0684F000326BE40B9
:10128000B0434F009E68BE403043D0605E6806F0B9
:101290008056B6F1805F7DD100BF00260096404E9B
:1012A000366846F480463E4F3E603E46366806F459
:1012B0008046009600BF00BF3A4E8F0856F82700C0
:1012C0008E07370F0F26BE40B043374EB24202D1D1
:1012D000002624E05EE0354EB24201D101261EE038
:1012E000334EB24201D1022619E0324EB24201D150
:1012F000032614E0304EB24201D104260FE02F4EF7
:10130000B24201D105260AE02D4EB24201D1062695
:1013100005E02C4EB24201D1072600E008268F07D7
:101320003F0FBE4030431F4E8F0846F82700264E21
:101330003068A0435E6806F48036B6F5803F00D181
:101340002043214E3060361D3068A0435E6806F4AD
:101350000036B6F5003F00D120431B4E361D3060ED
:10136000361D3068A0435E6806F48016B6F5801F0F
:1013700000D12043144E08363060361D3068A0433B
:101380005E6806F40016B6F5001F00D120430E4E2D
:101390000C363060491C1029FFF420AFF8BD000066
:1013A0004438024008380140000002400004024076
:1013B00000080240000C02400010024000140240ED
:1013C00000180240001C0240003C014004484068F4
:1013D0000449B0FBF1F04FF47A71484370470000C4
:1013E000001000E0007A030A034800680349097806
:1013F0000844014908607047040000200C000020E8
:1014000001460848006840F08070064A10600020DD
:10141000054A50601046006840F00100106000204E
:1014200070470000FCED00E0001000E001460846B7
:10143000002809DB00F01F0301229A4043099B00AA
:1014400003F1E023C3F8002100BF70472DE9F05FEE
:1014500080460D461646002701F00EFC0746394629
:101460002A46334601F00700C0F1070ABAF1040F1B
:1014700002D94FF0040A01E0C0F1070AD14600F199
:10148000040ABAF1070F02D24FF0000A01E0A0F1FE
:10149000030AD4464FF0010A0AFA09FAAAF1010A2E
:1014A0000AEA020A0AFA0CFA4FF0010B0BFA0CFBDB
:1014B000ABF1010B0BEA030B4AEA0B042146404651
:1014C00001F0E2FBBDE8F09F70B504460D460CB993
:1014D000012070BD5848006800F00F00A84209D2F2
:1014E00055490D700846006800F00F00A84201D071
:1014F0000120EEE7207800F0020002281DD12078BC
:1015000000F00400042805D14C48006840F4E05085
:101510004A490860207800F00800082805D14748AB
:10152000006840F46040454908604448006820F085
:10153000F000A168084341490860207800F00100EC
:10154000A8B36068012807D13C4808380068C0F398
:101550004040B8B90120BCE76068022802D060684A
:10156000032807D1354808380068C0F3406048B9FF
:101570000120AEE7314808380068C0F3400008B9E0
:101580000120A6E72D48006820F0030061680843A9
:101590002A490860FFF71AFF064609E0FFF716FF21
:1015A000801B41F28831884202D9032091E707E08D
:1015B0002248006800F00C006168B0EB810FEDD1AB
:1015C0001D48006800F00F00A84209D91A490D70A3
:1015D0000846006800F00F00A84201D0012078E71B
:1015E000207800F00400042807D11448006820F493
:1015F000E050E168084311490860207800F00800D5
:10160000082808D10D48006820F46040216940EAAC
:10161000C1000A49086000F03DF808490968C1F3B3
:101620000311074A515CC840064908600F20FFF7C4
:10163000E7FE00204DE70000003C02400838024071
:1016400090B00008000000200148006870470000CA
:101650000000002000B5FFF7F7FF04490968C1F357
:101660008221034A515CC84000BD00000838024096
:10167000A0B0000800B5FFF7E7FF04490968C1F30F
:101680004231034A515CC84000BD000008380240A6
:10169000A0B000082DE9F047002400250026A1464F
:1016A0002548006800F00C0020B1042805D0082867
:1016B0003AD105E0DFF8849039E0DFF8849036E035
:1016C0001D48001F006800F03F041B48001F006811
:1016D00000F4800078B11A481749091F0968C1F35E
:1016E0008811A0FB01700146224600233846FEF710
:1016F00067FD05460EE011480F49091F0968C1F34F
:101700008811A0FB01700146224600233846FEF7EF
:1017100057FD05460848001F0068C0F30140401C03
:101720004600B5FBF6F902E0DFF8109000BF00BFFD
:101730004846BDE8F0870000083802400024F40065
:1017400000127A00F8B504460CB90120F8BD2078E3
:1017500000F00100002874D0F948006800F00C0087
:1017600004280DD0F648006800F00C00082813D1BA
:10177000F348001F006800F48000B0F5800F0BD123
:10178000EF4808380068C0F34040002859D060682E
:10179000002856D10120D9E700BF6068B0F5803F2E
:1017A00008D1E7480838006840F48030E449083937
:1017B00008601EE06068B0F5A02F0DD1E048083841
:1017C000006840F48020DE49083908600846006857
:1017D00040F4803008600CE0D9480838006820F4F4
:1017E0008030D749083908600846006820F4802016
:1017F000086000BF606890B1FFF7E8FD054606E0AD
:10180000FFF7E4FD401B642801D903209EE7CC4884
:1018100008380068C0F340400028F1D011E0FFF71D
:10182000D5FD054606E0FFF7D1FD401B642801D930
:1018300003208BE7C24808380068C0F34040002806
:10184000F1D1207800F0020002285FD1BC48006886
:1018500000F00C0058B1BA48006800F00C000828ED
:101860001CD1B748001F006800F48000B0B9B4482C
:1018700008380068C0F3400020B1E068012801D0BA
:10188000012063E7AE480838006820F0F8002169BD
:1018900040EAC100AA490839086037E0E06800B3AF
:1018A0000120A8490860FFF791FD054606E0FFF713
:1018B0008DFD401B022801D9032047E7A0480838C6
:1018C0000068C0F340000028F1D09D480838006847
:1018D00020F0F800216940EAC10099490839086000
:1018E00014E0002097490860FFF770FD054606E008
:1018F000FFF76CFD401B022801D9032026E7904822
:1019000008380068C0F340000028F1D1207800F0CA
:10191000080008282CD16069A8B101208A49086014
:10192000FFF754FD054606E0FFF750FD401B022877
:1019300001D903200AE782486C300068C0F34000F8
:101940000028F1D014E000207F490860FFF73EFD39
:10195000054606E0FFF73AFD401B022801D90320A7
:10196000F4E677486C300068C0F340000028F1D1FD
:10197000207800F00400042870D100267048383028
:10198000006800F0805090B900BF002000906C48C3
:101990003830006840F080506949383108600846A6
:1019A000006800F08050009000BF00BF012667482B
:1019B000006800F48070B0B96448006840F480703A
:1019C00062490860FFF702FD054606E0FFF7FEFCEE
:1019D000401B022801D90320B8E65C48006800F4E7
:1019E00080700028F2D000BFA068012808D15448B8
:1019F0006830006840F001005149683108601DE01E
:101A0000A06805280DD14E486830006840F00400F9
:101A10004B49683108600846006840F001000860E2
:101A20000CE047486830006820F001004449683104
:101A300008600846006820F00400086000BFA06845
:101A4000A8B1FFF7C3FC054609E0FFF7BFFC401B48
:101A500041F28831884202D9032077E626E03848EF
:101A600068300068C0F340000028EED013E0FFF7B4
:101A7000ADFC054608E0FFF7A9FC401B41F28831A8
:101A8000884201D9032061E62D4868300068C0F320
:101A900040000028EFD1012E07D1294838300068D6
:101AA00020F0805026493831086000BFA069B8B3E3
:101AB0002348006800F00C0008285ED0A0690228C6
:101AC00046D100201F490866FFF780FC054606E066
:101AD000FFF77CFC401B022801D9032036E618489A
:101AE00008380068C0F340600028F1D1D4E907014C
:101AF0000843616A40EA81110122A06AC2EB5000EA
:101B000041EA00412C20005D41EA00600C49091FB8
:101B1000086001200B490866FFF758FC054607E0FE
:101B20002DE0FFF753FC401B022801D903200DE6EE
:101B3000034808380068C0F340600028F1D01EE078
:101B40000838024000004742800E474200700040C3
:101B500000200C490866FFF739FC054606E0FFF750
:101B600035FC401B022801D90320EFE50648006838
:101B7000C0F340600028F2D101E00120E6E500203A
:101B8000E4E500000000474200380240704770471B
:101B900010B504460CB9012010BD94F83D0028B9D9
:101BA000002084F83C00204600F00CF8022084F865
:101BB0003D00211D206800F071FC012084F83D00EB
:101BC0000020E9E7704701460868C06840F001005E
:101BD0000B68D8600868806800F00702062A05D004
:101BE0000868006840F001000B681860002070472A
:101BF000704710B5044620680069C0F34000D8B1B2
:101C00002068C068C0F34000B0B16FF002002168E6
:101C10000861012020772068806900F0030018B176
:101C20002046FFF7E5FF05E0204600F0ADF820462E
:101C300000F0ABF80020207720680069C0F3800036
:101C4000D8B12068C068C0F38000B0B16FF0040064
:101C500021680861022020772068806900F44070C4
:101C600018B12046FFF7C4FF05E0204600F08CF8CD
:101C7000204600F08AF80020207720680069C0F331
:101C8000C000D8B12068C068C0F3C000B0B16FF028
:101C9000080021680861042020772068C06900F0EE
:101CA000030018B12046FFF7A3FF05E0204600F02F
:101CB0006BF8204600F069F8002020772068006962
:101CC000C0F30010D8B12068C068C0F30010B0B1F4
:101CD0006FF0100021680861082020772068C06933
:101CE00000F4407018B12046FFF782FF05E020465F
:101CF00000F04AF8204600F048F8002020772068DD
:101D0000006900F0010058B12068C06800F00100CF
:101D100030B16FF0010021680861204600F036F80C
:101D200020680069C0F3C01058B12068C068C0F3D3
:101D3000C01030B16FF08000216808612046FFF7C5
:101D400025FF20680069C0F3801058B12068C06882
:101D5000C0F3801030B16FF0400021680861204668
:101D600000F02CF820680069C0F3401058B12068DA
:101D7000C068C0F3401030B16FF0200021680861E6
:101D80002046FFF704FF10BD7047704710B50446AA
:101D90000748844202D104F0D3F907E005488442A1
:101DA00004D105480068401C0349086010BD0000CC
:101DB000B00D0020F00D00207C01002070470000D5
:101DC00008B500BF00210091016809680091016811
:101DD0004968009100BF00BF07490968496941F09F
:101DE0000101054A126851610168C96841F020018A
:101DF0000268D16008BD0000300D00202DE9F047D9
:101E00000446206805682068C668206847694FF066
:101E10000008C14605F00F08B8F1000F0AD105F01F
:101E2000200038B106F0200020B1204600F02AFC46
:101E3000BDE8F087B8F1000F6ED007F0010018B9C7
:101E400006F49070002867D005F0010030B106F468
:101E5000807018B1E06B40F00100E06305F0040011
:101E600030B107F0010018B1E06B40F00200E06310
:101E700005F0020030B107F0010018B1E06B40F04E
:101E80000400E06305F0080030B107F0010018B16C
:101E9000E06B40F00800E063E06B70B305F02000F9
:101EA00028B106F0200010B1204600F0EBFB2068BE
:101EB0004069C0F38019E06B00F0080010B9B9F177
:101EC000000F23D0204600F0BDFB2068406900F0E1
:101ED0004000402816D12068406920F04000216869
:101EE0004861606B50B11748616B0865606BFFF724
:101EF00059F910B1606B016D88470CE02046FFF77F
:101F00005FFF08E02046FFF75BFF04E02046FFF795
:101F100057FF0020E0638BE705F0800030B106F04A
:101F2000800018B1204600F0B5FD81E705F04000C3
:101F300030B106F0400018B1204600F093FB77E77F
:101F400000BF75E73126000810B504460CB9012022
:101F500010BDA06900B100E000BF94F8390028B9B5
:101F6000002084F83800204600F028F8242084F867
:101F700039002068C06820F400502168C8602046FD
:101F800000F0D4FB2068006920F4904021680861CB
:101F90002068406920F02A00216848612068C068F4
:101FA00040F400502168C8600020E063202084F8DD
:101FB000390084F83A000020CAE7000010B586B066
:101FC000044600BF002000902948006840F010003F
:101FD000274908600846006800F01000009000BF24
:101FE00000BF00BF0020009021481438006840F076
:101FF00002001F49143908600846006800F002001A
:10200000009000BF00BF00BF00200090084600689D
:1020100040F0020008600846006800F002000090EE
:1020200000BF00BF402001900220029001200390D9
:10203000032004900720059001A90E48FFF7C6F879
:102040008020019002200290012003900320049040
:102050000720059001A90748FFF7B8F800221146AC
:102060002520FFF7F3F92520FFF7E0F906B010BDB2
:1020700044380240000402402DE9F84304460D466E
:1020800016461F464FF0000994F83A00202860D108
:1020900005B116B90120BDE8F88300BF94F83800F7
:1020A000012801D10220F6E7012084F8380000BFA2
:1020B0000020E063222084F83A00FFF787F9814688
:1020C000A685E68539E0E08D401EE085A068B0F584
:1020D000805F1BD14B46002220212046009700F054
:1020E0000DFD08B10320D6E7A846206938B920685D
:1020F0004068C0F30800A8F80000AD1C1DE020688F
:102100004068C0B2A8F800006D1C16E04B460022E3
:1021100020212046009700F0F1FC08B10320BAE727
:10212000206920B92068406805F8010B05E02068A7
:10213000406800F07F0005F8010BE08D0028C2D157
:10214000202084F83A0000BF002084F8380000BF47
:10215000A1E702209FE770472DE9F84304460D46AA
:1021600016461F464FF0000994F8390020285CD12C
:1021700005B116B90120BDE8F88300BF94F8380016
:10218000012801D10220F6E7012084F8380000BFC1
:102190000020E063212084F83900FFF717F9814619
:1021A000A684E6842BE0E08C401EE084A068B0F5B5
:1021B000805F16D14B46002280212046009700F018
:1021C0009DFC08B10320D6E7A846B8F80000C0F38C
:1021D000080021684860206908B9AD1C0FE06D1C3B
:1021E0000DE04B46002280212046009700F086FC3F
:1021F00008B10320BFE715F8010B21684860E08CA7
:102200000028D0D14B46002240212046009700F004
:1022100075FC08B10320AEE7202084F8390000BF28
:10222000002084F8380000BFA5E70220A3E770472C
:1022300000BFFEE700B587B000BF00200190344822
:10224000006840F00100324908600846006800F06C
:102250000100019000BF00BF00BF002001900846B0
:10226000006840F0010008600846006800F00100C6
:10227000019000BF00BF00BF002001900846006829
:1022800040F0010008600846006800F0010001907D
:1022900000BF00BF00BF002001900846006840F06A
:1022A000020008600846006800F00200019000BFCC
:1022B00000BF881502900120039004900320059030
:1022C00002A91448FEF782FF8020029002A911485B
:1022D000FEF77CFF4020029002A90E48FEF776FF31
:1022E0004FF48070029002A90B48FEF76FFF0020A8
:1022F0000A49086001200A49C1F89C0200200749E8
:10230000083908600749C1F8A00207B000BD000005
:10231000303802400000024000040240A002404267
:10232000000040420080404200BFFEE77047704717
:1023300010B504460A480B4908600846446000216D
:102340008160C16001610C214161FFF7FDFD05481D
:102350000068C06840F0200002490968C86010BDEC
:1023600000100140300D0020704710B5FFF73CF819
:1023700010BD000000B593B0302107A8FDF758FF4D
:10238000142102A8FDF754FF00BF0020019024484B
:10239000006840F08050224908600846006800F05C
:1023A0008050019000BF00BF00BF002001901D4879
:1023B000006840F480401B4908600846006800F44B
:1023C0008040019000BF00BF0120079000040890EA
:1023D00002200D9041050E9108210F914FF4A87134
:1023E0001091022111910421129107A8FFF7AAF977
:1023F00008B100BFFEE70F200290022003900020EA
:1024000004904FF4A05005904FF4805006900521A1
:1024100002A8FFF759F808B100BFFEE713B000BDEE
:1024200040380240007000401048006840F0010051
:102430000E49086000200D49083108600B4800680B
:102440000B490840094908600A48091D0860081F2F
:10245000006820F48020091F0860002003490C3127
:1024600008604FF00060044908607047003802407F
:10247000FFFFF6FE1030002408ED00E010B5024822
:10248000FFF7B7FB10BD0000B00D002010B50248EB
:10249000FFF7AFFB10BD0000F00D002010B5026883
:1024A000294B98420ED0B0F1804F0BD0274B984269
:1024B00008D0274B984205D0264B984202D0264B95
:1024C000984203D122F070024B681A431E4B984287
:1024D00020D0B0F1804F1DD01C4B98421AD01C4B1D
:1024E000984217D01B4B984214D01B4B984211D0E6
:1024F0001A4B98420ED01A4B98420BD0194B984267
:1025000008D0194B984205D0184B984202D0184B6E
:10251000984203D122F44072CB681A4322F0800320
:102520004C6943EA040202608B68C3620B688362F1
:10253000054B984202D0084B984201D10B690363C6
:102540000123436110BD0000000001400004004071
:1025500000080040000C0040000401400040014021
:10256000004401400048014000180040001C0040A9
:102570000020004008B500BF002000901E48006801
:1025800040F002001C4908600846006800F00200A4
:10259000009000BF00BF00BF002000900846006808
:1025A00040F0040008600846006800F00400009055
:1025B00000BF00BF1148124908604FF6FF71104874
:1025C000C16029200E4948600846FFF7E1FA0C482F
:1025D000FFF7F9FA0B480C49086040F2E7310A4866
:1025E000C1605320084948600846FFF7D1FA064801
:1025F000FFF7E9FA08BD000040380240000400403F
:10260000B00D002000080040F00D002010B503229E
:1026100001211D20FEF71AFF1D20FEF707FF0322F0
:1026200002211E20FEF712FF1E20FEF7FFFE10BD46
:1026300070B50546AC6B0020E085E0842046FFF7CE
:10264000BFFB70BD0168C96821F490710268D16058
:102650000168496921F0010102685161202180F877
:102660003A10704710B504462068C06820F040005A
:102670002168C860202084F839002046FFF7D7FD84
:10268000002010BD70B5044694F83A0022284AD1C3
:10269000A068B0F5805F13D1A56A206940B92068B1
:1026A0004068C0F308002880A06A801CA06219E07E
:1026B00020684068C0B22880A06A401CA06211E077
:1026C000206938B920684068C1B2A26A501CA06273
:1026D000117007E02068406800F07F01A26A501C7A
:1026E000A0621170E08D401E80B2E085C8B92068FC
:1026F000C06820F020002168C8602068C06820F40D
:1027000080702168C8602068406920F0010021685D
:102710004861202084F83A002046FFF71CFD002085
:1027200070BD0020FCE70220FAE700002DE9F0412F
:1027300004462068006920F44050E168084321689D
:1027400008612169A068084361690843E16940EABA
:1027500001052068C06849F20C618843284321685C
:10276000C8602068406920F44070A169084321686E
:102770004861E069B0F5004F7ED1C44920688842C5
:1027800003D0C349206888425DD1FEF773FF00EB98
:10279000C00101EB001061684900B0FBF1F0642159
:1027A000B0FBF1F00601FEF765FF00EBC00101EBA5
:1027B000001061684900B0FBF1F7FEF75BFF00EB2A
:1027C000C00101EB001061684900B0FBF1F0642129
:1027D000B0FBF1F000EBC00101EB0010A7EB8000B3
:1027E000322101EBC0006421B0FBF1F000F0F800F1
:1027F00006EB4006FEF73EFF00EBC00101EB0010C8
:1028000061684900B0FBF1F7FEF734FF00EBC0014F
:1028100001EB001061684900B0FBF1F06421B0FBEE
:10282000F1F000EBC00101EB0010A7EB80003221BA
:1028300001EBC0006421B0FBF1F000F00700304470
:102840002168886020E1FEF705FF00EBC00101EB85
:10285000001061684900B0FBF1F06421B0FBF1F0B9
:102860000601FEF7F7FE00EBC00101EB0010616806
:102870004900B0FBF1F700E045E0FEF7EBFE00EBAE
:10288000C00101EB001061684900B0FBF1F0642168
:10289000B0FBF1F000EBC00101EB0010A7EB8000F2
:1028A000322101EBC0006421B0FBF1F000F0F80030
:1028B00006EB4006FEF7CEFE00EBC00101EB001078
:1028C00061684900B0FBF1F7FEF7C4FE00EBC00100
:1028D00001EB001061684900B0FBF1F06421B0FB2E
:1028E000F1F000EBC00101EB0010A7EB80003221FA
:1028F00001EBC0006421B0FBF1F000F007003044B0
:1029000021688860C0E061492068884203D060493E
:10291000206888425CD1FEF7ADFE00EBC00101EB00
:10292000001061688900B0FBF1F6FEF7A3FE00EB32
:10293000C00101EB001061688900B0FBF1F0642177
:10294000B0FBF1F000EBC00101EB0010A6EB800042
:10295000322101EB00106421B0FBF1F000F0F00631
:10296000FEF788FE00EBC00101EB001061688900F2
:10297000B0FBF1F06421B0FBF1F006EB0016FEF7BE
:1029800079FE00EBC00101EB001061688900B0FB2B
:10299000F1F7FEF76FFE00EBC00101EB001061687C
:1029A0008900B0FBF1F06421B0FBF1F000EBC00155
:1029B00001EB0010A7EB8000322101EB0010642135
:1029C000B0FBF1F000F00F003044216888605BE05C
:1029D000FEF740FE00EBC00101EB001061688900CA
:1029E000B0FBF1F6FEF736FE00EBC00101EB001084
:1029F00061688900B0FBF1F06421B0FBF1F000EBFD
:102A0000C00101EB0010A6EB8000322101EB0010A9
:102A10006421B0FBF1F000F0F006FEF71BFE00EBC6
:102A2000C00101EB001061688900B0FBF1F0642186
:102A3000B0FBF1F006EB0016FEF70CFE00EBC00158
:102A400001EB001061688900B0FBF1F7FEF702FEB0
:102A500000EBC00101EB001061688900B0FBF1F0F0
:102A60006421B0FBF1F000EBC00101EB0010A7EB1B
:102A70008000322101EB00106421B0FBF1F000F086
:102A80000F00304421688860BDE8F08100100140EB
:102A900000140140014691F8390021282CD18868A2
:102AA000B0F5805F0FD10A6A1088C0F308000B6888
:102AB0005860086918B9086A801C086209E0086A49
:102AC000401C086205E00B6A581C086218780B6805
:102AD0005860C88C401E80B2C88458B90868C06865
:102AE00020F080000B68D8600868C06840F04000A3
:102AF0000B68D860002070470220FCE72DE9F04108
:102B000004460D4617469846069E21E0701CF8B113
:102B10002EB1FEF75BFCA0EB0800B04218D920688C
:102B2000C06820F4D0702168C8602068406920F037
:102B3000010021684861202084F8390084F83A00B7
:102B400000BF002084F8380000BF0320BDE8F081FA
:102B5000206800682840A84201D1012000E0002040
:102B6000B842D3D00020F1E708B50B480068C06830
:102B700000F0200060B1084800684068C0B20090D2
:102B80009DF8000003F036FA04480349096808601C
:102B90000148FFF733F908BD300D0020DFFFFFEFDC
:102BA00008B5164800680068C0F34010A8B14FF49B
:102BB0007A73012269461148FFF75EFA10480078DF
:102BC00040280ADA9DF800000E490D4A1278885410
:102BD0000B480078401C0A4908709DF80000032843
:102BE0000BD1002106480078401EC0B2044A107084
:102BF000044A115401200449087008BD300E002019
:102C000080010020700E002081010020044800682F
:102C1000C06840F0200002490968C86070470000A1
:102C2000300D002000BFFEE70FB4054B10B503A91F
:102C3000044A029802F018FC10BC5DF814FB000076
:102C40002D6900089401002003B401984100009808
:102C500050EAC12018BF04204A0D18BF40F00100FF
:102C600040F2FF72B2EB515F08BF40F00200012852
:102C700008BF052002B0704702480068C0F3022078
:102C8000704700000CED00E010B5002804DB0A07D7
:102C9000130E054A135406E00A07140E034A00F007
:102CA0000F031B1FD45410BD00E400E018ED00E03A
:102CB000004870479801002010B5B94A2DED020B6D
:102CC0002DED0C8B82B00F9921F000409FEDB6CB1B
:102CD00090422CDBA0F140530E9AA3F17F631A437C
:102CE0000FD0B349884202DC16D10E98A0B19DEDF9
:102CF0000E0B02B0BDEC0C8B02B0BDE8104002F030
:102D00008FBA0029C1BF9FEDAC0B02B0BDEC0C8B9C
:102D100002B0C8BF10BD16E0012002F0D5FA02B023
:102D2000BDEC0C8B02B0BDE8104002F08DBAA44A95
:102D30009FEDA59B9FEDA6AB90425EDAA6499FED65
:102D4000A8CB814208DBB0EE4C0AF0EE6C0A02B070
:102D5000BDEC0C8B02B010BD9DED0E0B53EC102B97
:102D600051EC100BFDF76AFB41EC180B9E48062155
:102D7000B0EE480AF0EE680A784402F025F953EC08
:102D8000182B51EC100BFDF759FB41EC1B0B97482E
:102D9000B0EE480AF0EE680A0421784402F014F913
:102DA00053EC182B51EC100BFDF748FB53EC192B8F
:102DB000FDF79DFA41EC100B51EC1B0B53EC102B63
:102DC000FDF7AEFB41EC100B53EC102B9DED0E0B01
:102DD00051EC100BFDF732FB53EC1A2BFDF72BFBDC
:102DE0009DED0E1B53EC112BFDF725FB53EC1C2B1B
:102DF000FDF721FB41EC100BA9E79FED7D8B9FEDCB
:102E00007EBB9DED0E0B002953EC192B51EC100BE2
:102E100052DAFDF76CFA53EC182BFDF70FFB41EC7F
:102E2000180B77480621B0EE480AF0EE680A78449D
:102E300002F0CAF853EC182B51EC100BFDF7FEFA18
:102E400041EC1D0B6F48B0EE480AF0EE680A042111
:102E5000784402F0B9F853EC182B51EC100BFDF745
:102E6000EDFA53EC192BFDF742FA41EC190B51EC3A
:102E7000180B07F041FA41EC180B53EC192B51ECED
:102E80001D0BFDF74DFB53EC182BFDF7D7FA53EC58
:102E90001A2BFDF7CDFA41EC100B51EC180B53EC4B
:102EA000102BFDF724FA53EC1B2BFDF7C7FA53EC5C
:102EB0001C2BFDF7C0FA6DE0FDF7BDFA53EC182BA3
:102EC000FDF7BCFA41EC180B07F016FA41EC1A0BAF
:102ED00000208DED00AB00909DED000B51EC1A0B26
:102EE00053EC102BFDF703FA9DED000B41EC1C0B8E
:102EF00053EC102B51EC100BFDF7A0FA53EC182BF0
:102F0000FDF799FA53EC1C2BFDF70AFB41EC1C0B67
:102F10003D48B0EE480AF0EE680A0621784402F017
:102F200053F853EC182B51EC100BFDF787FA41ECDA
:102F30001D0B3648B0EE480AF0EE680A04217844CA
:102F400002F042F853EC182B51EC100BFDF776FA17
:102F500053EC192BFDF7CBF941EC100B51EC1D0B89
:102F600053EC102BFDF7DCFA53EC1A2BFDF766FA45
:102F700053EC1C2BFDF7BBF941EC100B53EC102B61
:102F80009DED000B51EC100BFDF7B1F953EC1B2B31
:102F9000FDF754FA41EC100BD9E6000000000000E8
:102FA0000000F03F00000000182D4454FB210940B0
:102FB0000000F07F000000000000000000000000A2
:102FC0000000E03F00000000000000000000F03FB3
:102FD000075C143326A6913C0000603C0000000012
:102FE000182D4454FB21F93F348300004283000034
:102FF000000000000000E03F000000000000004072
:103000007E8200008C820000908100009E81000082
:1030100070B59B482DED020B2DED068B079D25F01D
:103020000044A04218DC9748844202DC0AD106988A
:1030300040B19DED060BBDEC068B02B0BDE87040C3
:1030400002F0EEB8002DCCBF9FED8F0B9FED900BE3
:10305000BDEC068B02B070BD8F48A04215DD8F48D5
:10306000A042D8BF4FF0FF3458DD9DED060B51EC68
:10307000100BFFF7E9FD042808BF02F005F99DEDEC
:10308000060BBDEC068B02B070BD9DED060B51EC3E
:10309000100B03F03FFCCDE9060181489FED828BC8
:1030A000A0423CDD8248A0421FDD00249FED82ABA0
:1030B0009DED060B53EC1A2B51EC100BFDF717F995
:1030C0009DED060B41EC190B53EC1A2B51EC100B38
:1030D000FDF7B4F953EC182BFDF7AAF953EC192BB3
:1030E000FDF71EFACDE9060149E09DED060B01242E
:1030F00053EC182B51EC100BFDF7F9F89DED060B76
:1031000041EC190B53EC182B51EC100BFDF790F917
:1031100053EC192BFDF704FACDE906012FE06848BE
:10312000A0421FDD02249FED689B9DED060B53EC32
:10313000192B51EC100BFDF781F953EC182BFDF70F
:10314000D6F89DED060B41EC180B53EC192B51EC06
:10315000100BFDF76DF953EC182BFDF7E1F9CDE9F4
:1031600006010CE09DED060B032453EC102B9FEDA4
:10317000580B51EC100BFDF7D3F9CDE906019DED8D
:10318000060B53EC102B51EC100BFDF757F941ECEB
:10319000180B53EC182BFDF751F941EC190B4E4865
:1031A0000621B0EE490AF0EE690A784401F00CFFFE
:1031B00053EC182B51EC100BFDF740F941EC180BB8
:1031C0004648B0EE490AF0EE690A0521784401F05C
:1031D000FBFE53EC192B51EC100BFDF72FF941ECD2
:1031E000100B51EC180B53EC102B002C0EDAFDF7E2
:1031F0007EF89DED061B53EC112BFDF71FF99DED9D
:10320000061B53EC112BFDF716F935E0FDF76FF8AF
:103210009DED061B53EC112BFDF710F941EC100B43
:103220002F48784400EBC40090ED001B51EC100BCC
:1032300053EC112BFDF7FCF89DED061B53EC112B05
:10324000FDF7F6F841EC100B2648784400EBC4007B
:1032500090ED001B51EC100B53EC112BFDF7EBF82C
:1032600041EC100B002DA2BFBDEC068B02B070BD6F
:1032700051EC100B81F0004141EC100B01E7000014
:10328000000010440000F07F182D4454FB21F93F4A
:10329000182D4454FB21F9BF0000DC3F0000203E04
:1032A0000000F33F00000000000000000000F03FBD
:1032B0000000E63F000000000000000000000040A9
:1032C0000080034000000000000000000000F83F04
:1032D000000000000000F0BF42800000F87F000006
:1032E000827F00003A7F000070B56B4E2DED040B1D
:1032F0002DED028B82B0DDF81CC0DDE905235C42B8
:103300002CF000411C4341EAD474049D22F000409B
:10331000B44205D86C422C4340EAD474B4420BD971
:103320009DED061B9DED040B02B0BDEC028B04B0BD
:10333000BDE8704001F07EBFACF14054A4F17F6461
:103340001C430BD0022404EAAC7444EAD274054353
:103350009FED538B9FED542B07D015E09DED040B93
:1033600051EC100B02F017FC42E0002C11BF012CB5
:103370009DED040B02B0BDEC028B04BF04B070BD28
:10338000022C38D0032C3BD00B439FED491B9FED03
:103390004A0B0AD0B14218D1B04209D121F0804184
:1033A00020F08040079105900FE0002A15DA10E028
:1033B000434B7B44002C08BF93ED000B0DD0012C38
:1033C00010D0022C17D0032C1AD0B0421DD1002AE5
:1033D00003DAB0EE410AF0EE610A02B0BDEC028BF6
:1033E00004B070BD93ED000B51EC100B81F0004167
:1033F00041EC100BF1E7B0EE480AF0EE680AECE79A
:10340000B0EE420AF0EE620AE7E7401A00153C28E7
:10341000C8BF8DED000B19DCBCF1000FBEBF10F171
:103420003C0F9FED290B8DED000B0FDB9DED060B87
:1034300053EC102B9DED040B51EC100BFDF770F8C5
:1034400003F068FA02F0A7FBCDE90001002C08BFE9
:103450009DED000BC1D0012C10D0022C9FED1C0B58
:1034600053EC102B9DED000B51EC100B0DD0FCF725
:10347000DFFF53EC182BFCF7DBFFB9E7019880F076
:10348000004001909DED000BA7E7FCF7D1FF53EC46
:10349000182BFCF7D0FFABE70000F07F0000000026
:1034A000182D4454FB210940182D4454FB2109C018
:1034B000182D4454FB21F9BF182D4454FB21F93F2A
:1034C0009A7E0000000000000000000000000000E4
:1034D000075C143326A6A13C2DE9F0412DED020B2B
:1034E0009FED3D0B2DED028B9FED3D8BDDE90254F1
:1034F000C4F30A50A0F2FF36142E37DA002E18DA81
:1035000053EC102B9DED020B51EC100BFCF7EFFE72
:1035100053EC182BFDF7E8F857D2002CBCBF4FF046
:103520000044002551DB54EA050018BF2E4C1BD186
:103530004BE02E4820FA06F704EA070028431FD084
:1035400053EC102B9DED020B51EC100BFCF7CFFE52
:1035500053EC182BFDF7C8F837D2002C03DD4FF4DD
:103560008010F0400444BC4300252EE0332E07DCDD
:10357000A6F114004FF0FF3121FA00F73D4206D1C9
:103580009DED020BBDEC028B02B0BDE8F08153EC67
:10359000102B9DED020B51EC100BFCF74CFF53EC84
:1035A000182BFDF7A1F810D2002C0DDD142E08BF4A
:1035B000641C09D0C6F13400012101FA00F028444E
:1035C000A84238BF641C0546BD43CDE902549DEDB9
:1035D000020BD7E7000000009C7500883CE4377EB2
:1035E00000000000000000000000F03FFFFF0F009F
:1035F00010B52F499FED2C1B2DED020B84B00598C3
:1036000020F000408842D8BF9DED040B2DDD2949F4
:10361000884209D1049840B94FF0010001F054FEEE
:1036200001F012FE06B010BD05DB9DED040B01F0AC
:10363000F7FD06B010BD68469DED040B01F0F0F9F2
:1036400010F0030004BF9DED021B9DED000B0CD09C
:1036500001280ED09DED021B9DED000B022817D016
:10366000012001F02DFD06B010BD01F0F5FB06B004
:1036700010BD9DED021B9DED000B012001F020FD12
:1036800051EC100B81F0004106B041EC100B10BD65
:1036900001F0E2FB51EC100B81F0004106B041EC6F
:1036A000100B10BD00000000000000000000000032
:1036B000FB21E93F0000F07F2DED020B019820F087
:1036C000004001909DED000B02B07047000000002B
:1036D0002DE9F0412DED020B9FED3D0B2DED028B01
:1036E0009FED3D8BDDE90254C4F30A50A0F2FF3692
:1036F000142E37DA002E18DA53EC102B9DED020B46
:1037000051EC100BFCF7F3FD53EC182BFCF7ECFF1E
:1037100057D2002CA4BF0024254652DA24F00040E2
:10372000284318BF2E4C4CD01AE02E4820FA06F73A
:1037300004EA070028431FD053EC102B9DED020B29
:1037400051EC100BFCF7D3FD53EC182BFCF7CCFF1E
:1037500037D2002C03DA4FF48010F0400444BC430D
:1037600000252EE0332E07DCA6F114004FF0FF31C8
:1037700021FA00F73D4206D19DED020BBDEC028B14
:1037800002B0BDE8F08153EC102B9DED020B51EC23
:10379000100BFCF750FE53EC182BFCF7A5FF10D2D2
:1037A000002C0DDA142E08BF641C09D0C6F13400B9
:1037B000012101FA00F02844A84238BF641C0546E4
:1037C000BD43CDE902549DED020BD7E70000000098
:1037D0009C7500883CE4377E00000000000000007B
:1037E0000000F0BFFFFF0F0070B52DED040B2DEDB5
:1037F000048B8CB09DED100B8DED000B9DED120B2D
:103800008DED020B119820F00045139820F0004434
:10381000AC420ADD9DED120B28468DED000B9DEDAF
:10382000100B25468DED020B0446281B01950394D1
:10383000B0F1707F10DD9DED020B53EC102B9DED70
:10384000000B51EC100BFCF752FD41EC100B0CB0CF
:10385000BDEC048B04B070BDB748002685423EDD48
:10386000B648A84233DC9DED021B9DED000B01F034
:10387000E1FC8DED040B0098002818BF012000EB3F
:103880004501AF4811F5001F01D98542DFDB0299E0
:10389000002918BF012101EB440111F5001F01D9D6
:1038A0008442D4DB0099C5F31300084304BF9DEDA7
:1038B000000B8DED040B84F07F60029980F0E040F6
:1038C000084304BF9DED020B8DED040BBFE7A5F18E
:1038D0001655A4F116544FF41676019503949FEDF6
:1038E0009A8BB4F10C5F32DAB4F5801F27DA10EE50
:1038F000100A204308BF9DED000BA8D08DED0A8B68
:1039000093480B909DED0A0B53EC102B9DED020B91
:1039100051EC100BFCF792FDCDE902019DED0A0B75
:1039200053EC102B9DED000B51EC100BFCF786FDBA
:10393000CDE900010D46A6F2FE36039C07E005F135
:10394000165504F11654A6F51676019503949DEDCF
:10395000020B53EC102B9DED000B51EC100BFCF700
:1039600067FDCDE904019DED020B53EC102B9DED9D
:10397000040B51EC100BFCF7B7FE41D28DED0A8B16
:103980000B959DED0A0B53EC102B9DED000B51ECAC
:10399000100BFCF74DFD9DED0A0B41EC180B53ECA1
:1039A000102B9DED000B51EC100BFCF7A0FC53EC21
:1039B000182BFCF743FD9DED020B41EC180B51EC6D
:1039C000100B81F000419DED021B53EC112BFCF715
:1039D00035FD53EC182BFCF72BFD9DED0A0B41EC4C
:1039E000180B53EC102B51EC100BFCF727FD53EC8C
:1039F000182BFCF71DFD06F07FFCCDE9040161E00A
:103A00009DED000B53EC102B51EC100BFCF76FFCF1
:103A1000CDE900018DED068B07949DED060B53EC6F
:103A2000102B9DED020B51EC100BFCF701FD41EC4E
:103A3000190B8DED0A8B05F580100B909DED0A0B8F
:103A400053EC102B9DED000B51EC100BFCF7F0FC30
:103A50009DED021B53EC112BFCF7F0FC9DED0A0BC6
:103A600041EC180B53EC192B51EC100BFCF7E6FC56
:103A700053EC182BFCF73BFC9DED040B41EC180BB1
:103A800051EC100B81F000419DED041B53EC112B08
:103A9000FCF7D4FC53EC182BFCF7CAFC9DED060B8D
:103AA00041EC180B53EC102B9DED0A0B51EC100B55
:103AB000FCF7C4FC53EC182BFCF7BAFC06F01CFC1A
:103AC000CDE90401002E08BF9DED040B3FF4BFAE0D
:103AD00006EB11509FED200B40F2FF718DED0A0BAC
:103AE00088420ADB022001F0EFFB0CB0BDEC048B36
:103AF00004B0BDE8704001F0B7BB10EE900A00EBD7
:103B000006500B909DED040B53EC102B9DED0A0B12
:103B100051EC100BFCF792FC0D4645EC100B0446E3
:103B200051EC100BFFF790F8042808BF01F0ACFB34
:103B300045EC104B8BE600000000305F0000F07F8A
:103B40000000F87F000000000000000000000000FE
:103B50000000D07F00000000000000000000F03FE7
:103B600010B52DED020B2DED088B9DED080B51ECE2
:103B7000100BFCF7DBFF41EC180B9DED080B53EC31
:103B8000182B51EC100BFCF753FC41EC190B099866
:103B90009FED2D0B10F0004F53EC102B51EC190B37
:103BA0009FED25AB9FED26BB0DD0FCF785FD0DD914
:103BB00053EC1B2B51EC190BFCF796FD1BD213E0B9
:103BC00041EC180B17E0FCF777FD06D253EC1A2BEB
:103BD00051EC180BFCF72CFCF2E753EC1B2B51ECCF
:103BE000190BFCF781FD06D853EC1A2B51EC180B7E
:103BF000FCF77DFBE4E79FED160B51EC180B53EC43
:103C0000102BFCF771FD08D351EC180B9FED120B34
:103C100053EC102BFCF750FD02D2012001F054FBB5
:103C200051EC180BBDEC088B02B0BDE81040FCF75E
:103C3000D9BF000000000000000000000000F03FBD
:103C4000000000000000E03F000000000000E0BFB6
:103C50000000C0FFFFFFDF41000000000000E0C1E6
:103C60002DE9F04D2DED040B2DED0E8B96B0DDE919
:103C70002550279CDDF890A025F0004624F0004850
:103C8000BAF1000F14BF0121002101EB4502FC49EC
:103C900053184A1093422AD3002814BF012300234B
:103CA00003EB44030B44F7498B4220D358EA00014D
:103CB0009FEDF59B76D0DFF8D8B35D4503D1BAF11F
:103CC000000F05D188E0BAF1000F08BF002100D035
:103CD000012101EB450111F5001F08D8002814BF90
:103CE0000121002101EB440111F5001F0BD99DEDCD
:103CF000261B9DED240B16B0BDEC0E8B04B0BDE869
:103D0000F04D01F097BA0027002DBCBFE14988456E
:103D100021DAE1498845A8BF02271CDAC3451ADC2D
:103D2000DE4901EB2851142908DDC1F1340220FAE3
:103D300002F101FA02F282420DD108E058B9C1F154
:103D4000140228FA02F101FA02F2424503D101F00D
:103D50000101C1F1020756EA0A0124D1002C22DA3E
:103D6000002D18BF022F01D0012F0AD0022001F030
:103D7000ABFA16B0BDEC0E8B04B0BDE8F04D01F00F
:103D800037BA022001F0A0FA01F032FA51EC100B20
:103D900081F0004141EC100B16B0BDEC0E8B04B06D
:103DA000BDE8F08D18E09FEDBEAB9FEDBF8B002806
:103DB00071D1B848804522D105F1804010F58010BE
:103DC00008BFBAF1000F07D0B3450ADC002CA8BF2A
:103DD0009DED260BE0DA0DE0B0EE490AF0EE690A3F
:103DE000DAE7002C06DA9DED260B51EC100B81F082
:103DF00000416FE0AE48784490ED000BCCE7D84529
:103E00004DD1002C48DA2EB186423AD1BAF1000FDA
:103E100042D126E0BAF1000F13D0022001F054FA8B
:103E200001F022FA8DED020B9DED240B8DED000BC0
:103E300010EE900A039961F31E0003909DED020BB2
:103E4000AAE78DED02AB9DED240B1AEE901A10EE51
:103E5000900A8DED000B61F31E0003909DED020BA7
:103E60009AE78DED028B9DED240B18EE901A10EE63
:103E7000900A8DED000B61F31E0003909DED020B87
:103E80008AE709DA9DED240B51EC190B53EC102B4A
:103E9000FCF746FB1EE020E09DED240B7CE786420C
:103EA0001BDAB4F1804F0DD0A4F10050B0F1FF50F7
:103EB00013D1002D11DB9DED240B51EC100B06F0FE
:103EC0001BFA07E09DED240B53EC102B51EC100B6B
:103ED00000F0C2BC41EC100B5EE79DED240B51ECF1
:103EE000100B02F017FDBAF1000FCDE90E0142D11F
:103EF0009FED710B46B3A6F1E040B0F17F600CD0AE
:103F00005E4538D1002D00DAA7B3022F0CBF012087
:103F10004FF0FF30FCF773FBDCE7002D01DD002CD8
:103F20000DDA002D01DD002C1FDB002D16DA002C30
:103F300014DB012F08BF9FED620B3FF42DAFB0EEF5
:103F40004A0AF0EE6A0A27E7022F18BF002D0CD0AC
:103F5000012F0AD1002DFFF61FAF06E0002DB8BFDC
:103F6000002C08DA012F3FF417AFB0EE480AF0EE4C
:103F7000680A11E71BE0012000EBE57050EA070139
:103F800015D0791EB0EE498AF0EE698A084308BF61
:103F90009FED4D8B4E480025804570DD4D494E48C4
:103FA000884514DDB0420DDB002C19DB2FE0012029
:103FB00001F08AF916B0BDEC0E8B04B0BDE8F04DEF
:103FC00001F042B9B34502DC002C09DC1FE0864257
:103FD00002DA002C1BDA03E05E452BDD002C16DD37
:103FE000022001F071F901F03FF98DED020B53EC65
:103FF0001A2B51EC180BFCF721FACDE900010399BB
:10400000019861F31E0003909DED020BC4E60220AF
:1040100001F05AF901F038F910EE901A18EE900AF2
:104020008DED020B8DED008B61F31E0003909DED75
:10403000020BB1E69DED0E0B53EC192B51EC100B5E
:10404000FCF7F6F99FED260BCDE9080153EC102B98
:104050009DED080B51EC100BFCF7F0F99FED221BC6
:1040600053EC112BFCF7E7F99DED081B53EC112BDA
:10407000FCF7E4F99FED1E1B53EC112B3CE08CE0A8
:10408000FFFF1F00FFFF0F00000000000000F03FD7
:104090000000F03F0000F07F0000404301FCFFFF04
:1040A000000000000000F07F0000000000000000A1
:1040B00056740000000000000000000000000080B6
:1040C000000000000000F0FF000000000000F0BF52
:1040D0000000E0410000F043FFFFEF3F0000000060
:1040E000000000000000D03F555555555555D53FAF
:1040F000000000000000E03FFCF79DF99DED080B7B
:1041000041EC1A0B53EC102B51EC100BFCF796F909
:1041100053EC1A2BFCF792F941EC1A0B9FEDFE0BB6
:1041200053EC102B9DED080B51EC100BFCF786F9AE
:1041300041EC1B0B9FEDFA0B51EC1A0B53EC102BBF
:10414000FCF77CF941EC1A0B9FEDF70B53EC102BAD
:104150009DED080B51EC100BFCF770F953EC1A2B8A
:10416000FCF766F941EC1A0B51EC1B0B53EC1A2BC4
:10417000FCF7BDF80690CDE906519DED060B53EC1A
:104180001B2B51EC100BFCF753F953EC1A2BFCF7DB
:1041900052F941EC100B00F0A1B90020B6F5801FD8
:1041A0000EDA9FEDE30B53EC102B9DED0E0B51EC53
:1041B000100BFCF743F9CDE90E016FF034000E4609
:1041C00000EB2650A0F2FF37C6F31300DA4940F0A7
:1041D0007F6646F040568842D8BF002408DDD749A4
:1041E0008142C8BF012403DC0024A6F580167F1C91
:1041F000D348784400EBC4000F9690ED00CB9DEDC2
:104200000E0B53EC1C2B51EC100BFCF711F99DED30
:104210000E0B41EC1B0B53EC1C2B51EC100BFCF761
:1042200066F841EC100B51EC190B53EC102BFCF71A
:1042300077F941EC1D0B51EC1B0B53EC1D2BFCF7DC
:10424000FDF841EC1A0BBF488DED10AB784410958A
:1042500090ED000B4FF0005040EA660000EB844008
:104260008DED080B00F5002009909DED080B53EC37
:104270001C2B51EC100BFCF7DBF89DED0E1B53ECE7
:10428000112BFCF7D8F841EC100B53EC102B9DEDE3
:10429000100B51EC100BFCF7D1F89DED080B41EC25
:1042A0001C0B53EC102B9DED100B51EC100BFCF77D
:1042B000C5F853EC1B2BFCF7BEF853EC1C2BFCF79A
:1042C000B7F853EC1D2BFCF7B9F841EC1C0B53EC81
:1042D0001A2B51EC1A0BFCF7B1F841EC1B0B9A4866
:1042E0000621B0EE4B0AF0EE6B0A784400F06CFE4B
:1042F000B0EE401AF0EE601AB0EE41DAF0EE61DA9C
:1043000053EC1B2B51EC1B0BFCF798F853EC1D2BBB
:10431000FCF794F89DED100B41EC1B0B53EC1A2BA2
:1043200051EC100BFBF7E3FF53EC1C2BFCF786F86A
:1043300053EC1B2BFBF7DBFF9DED100B41EC1B0B34
:1043400053EC102B51EC100BFCF778F841EC1D0BE3
:104350009FED7FEB53EC1E2BFBF7C9FF53EC1B2BA0
:10436000FBF7C5FF0890CDE908519DED080B53EC14
:104370001E2B51EC100BFCF75BF853EC1D2BFCF7DC
:1043800057F853EC1B2BFCF756F89DED080B41EC4E
:104390001D0B53EC102B9DED100B51EC100BFCF78B
:1043A0004DF841EC1B0B53EC1A2B51EC1D0BFCF799
:1043B00045F89DED080B41EC1A0B53EC102B51EC1A
:1043C0001C0BFCF73BF853EC1A2BFBF790FF41EC6E
:1043D0001A0B51EC1B0B53EC1A2BFBF788FF0C90BC
:1043E000CDE90C519DED0C0B53EC1B2B51EC100B3C
:1043F000FCF71EF853EC1A2BFCF71DF841EC1B0BD5
:104400009FED550B53EC102B9DED0C0B51EC100B4D
:10441000FCF714F841EC1A0B9FED510B51EC1B0B00
:1044200053EC102BFCF70AF841EC1B0B9FED4E0BE5
:1044300053EC102B9DED0C0B51EC100BFBF7FEFF1A
:1044400053EC1B2BFBF753FF41EC100B484878440F
:1044500000EBC40090ED001B51EC100B53EC112B42
:10446000FBF745FF41EC1B0B3846FCF7C8F8CDE9DC
:10447000080153EC1B2B51EC1A0BFBF738FF41ECF6
:10448000100B3C48784400EBC40090ED00CB51EC9D
:10449000100B53EC1C2BFBF72AFF9DED081B53EC74
:1044A000112BFBF724FF0690CDE906519DED080B7B
:1044B00053EC102B9DED060B51EC100BFBF7B8FFE6
:1044C00053EC1C2BFBF7B4FF53EC1A2BFBF7B0FF9C
:1044D00053EC1B2BFBF7AFFF41EC100B9DED261BA4
:1044E00053EC102B8DED001B00959DED260B51EC30
:1044F000100BFBF7A3FF9DED000B41EC1A0B53ECE7
:10450000102B9DED260B51EC100BFBF791FF9DED51
:10451000061B53EC112B2FE0000000604715F73FFE
:10452000FE822B654715F73F44DF5DF80BAE543E26
:1045300000000000000040438E9803007AB60B0094
:104540000A6F000000700000426E000000000000D2
:104550000000000000000840000000E009C7EE3F36
:10456000FD033ADC09C7EE3FF5015B14E02F3EBEC8
:10457000CE6C0000886C0000FBF760FF53EC1A2B38
:10458000FBF7B5FE9DED060B41EC1A0B53EC102B1F
:104590009DED000B51EC100BFBF750FFCDE90C012A
:1045A0009DED0C0B51EC1A0B53EC102BFBF79FFEFF
:1045B000CDE902010C46AA498C422FDB611A08435F
:1045C00018D19DED0C0B53EC102B9DED020B51EC13
:1045D000100BFBF72DFF41EC1B0B9FEDA30B51ECD8
:1045E0001A0B53EC102BFBF782FE53EC1B2BFCF742
:1045F0007BF82DD2022000F067FE00F035FE10EEB1
:10460000901A18EE900A8DED020B8DED008B61F380
:104610001E0003909DED020BFFF7BEBB944A24F0F1
:104620000041914214D39349214408437FF4EFACF5
:104630009DED0C0B53EC102B9DED020B51EC100B70
:10464000FBF7F6FE53EC1A2BFCF74EF87FF6DFACC7
:1046500024F000408849894A002601EB205182421B
:104660002BDA481C4FF4801121FA00F02044844AD0
:10467000C0F30A517A44A1F2FF3192ED000B814A56
:104680008DED080BCA4020EA0202C0F3130040F48B
:104690008010C1F1140120FA01F60992002CB8BF74
:1046A00076429DED080B53EC102B9DED0C0B51EC5D
:1046B000100BFBF7BDFECDE90C019DED0C0B51EC91
:1046C0001A0B53EC102BFBF712FE9FED6F0B0890AB
:1046D000CDE9085153EC102B9DED080B51EC100B5C
:1046E000FBF7ACFE41EC1B0B9FED690B53EC102B61
:1046F0009DED080B51EC100BFBF7A0FE9DED0C0B94
:1047000041EC1C0B53EC102B9DED080B51EC100BE6
:10471000FBF78EFE53EC1A2BFBF78DFE9FED5E1B15
:1047200053EC112BFBF78AFE53EC1C2BFBF7DFFD40
:1047300041EC1A0B51EC1B0B53EC1A2BFBF7D7FD7A
:10474000CDE902019DED020B53EC1B2B51EC100B3C
:10475000FBF76EFE53EC1A2BFBF76DFE9DED020B83
:1047600041EC1A0B53EC102B51EC100BFBF766FECF
:10477000CDE908014A489DED080B0521784400F079
:1047800023FC9DED081B51EC100B53EC112BFBF798
:1047900055FE9DED021B53EC112BFBF74CFECDE9B2
:1047A00006019DED020B53EC1A2B51EC100BFBF79D
:1047B00045FE53EC1A2BFBF79AFD9FED3B0B41ECAA
:1047C0001A0B53EC102B9DED060B51EC100BFBF765
:1047D0002FFE9DED060B41EC1B0B53EC102B9DEDBA
:1047E000020B51EC100BFBF729FE53EC1B2BFBF7D4
:1047F00097FE53EC1A2BFBF71BFE9DED021B53ECAF
:10480000112BFBF715FE53EC192BFBF714FECDE92A
:10481000020101EB065001150029C8BF039015DC09
:104820009DED020B324651EC100BFCF717F9FEF729
:104830000BFA042808BF00F027FD32469DED020B5D
:1048400051EC100BFCF70AF9CDE902019DED020BCA
:1048500051EC180B53EC102BFBF7F0FDFFF73ABBB4
:104860000000904000000000FE822B654715973C39
:1048700000CC904000346F3F01FCFFFF0000E03FA0
:10488000D86B0000FFFF0F0000000000432EE63F42
:10489000396CA80C615C20BEEF39FAFE422EE63F6F
:1048A000E06900000000000000000000000000407F
:1048B00010B52F499FED2C1B2DED020B84B00598F0
:1048C00020F000408842DCBF00209DED040B32DD6B
:1048D0002849884209D1049840B94FF0010000F0FE
:1048E000F3FC00F0B1FC06B010BD05DB9DED040B40
:1048F00000F096FC06B010BD68469DED040B00F07C
:104900008FF810F0030011D0012818D09DED021B84
:104910009DED000B02281AD000F09EFA51EC100B0E
:1049200081F0004106B041EC100B10BD9DED021B63
:104930009DED000B012000F0C3FB06B010BD9DED06
:10494000021B9DED000B00F087FA06B010BD0120A0
:1049500000F0B6FB51EC100B81F0004106B041ECC9
:10496000100B10BD0000000000000000000000005F
:10497000FB21E93F0000F07F00B52DED048BB0EE88
:10498000409AF0EE609A83B051EC190BFCF77DF879
:1049900041EC180B18EE100A18EE901A8DED008BF2
:1049A000002818BF0120084320F00040C0F17F60BC
:1049B00000F1E040C00F14D019EE101A19EE900A61
:1049C0008DED009B002918BF0121084320F0004015
:1049D000C0F17F6000F1E040C00F04BF012000F093
:1049E00073FCB0EE480A03B0F0EE680ABDEC048B2D
:1049F00000BD00000000000000B583B09FED060B75
:104A00000A4601468DED000B6846FBF760FF9DED01
:104A1000000B03B000BD000000000000000000001B
:104A20002DE9F14F04462DED020B2DED088B8AB0D8
:104A30009FEDE70B80ED020B139EE74826F0004543
:104A400085420ADC9DED120B002084ED000B0AB0BC
:104A5000BDEC088B03B0BDE8F08FE0489FEDE0AB04
:104A60009FEDE1BBA84247DDE14F9FEDE39B9FED4A
:104A7000E48B9DED120B53EC1A2B51EC100B002E16
:104A80001CDDFBF7D5FC41EC100BBD4208D053EC0C
:104A90001B2B51EC100BFBF7CBFCC4E900010BE026
:104AA00053EC192B51EC100BFBF7C2FC53EC182BF9
:104AB000FBF7BEFCC4E900010120C8E7FBF717FCC7
:104AC00041EC100BBD4208D053EC1B2B51EC100BEA
:104AD000FBF70DFCC4E900010BE053EC192B51EC82
:104AE000100BFBF704FC53EC182BFBF700FCC4E99C
:104AF00000014FF0FF30AAE7C348A84279DB9DEDE3
:104B0000120B51EC100B01F005FF41EC180B9FED5F
:104B1000C00B53EC102BFBF791FC9FEDBF1B53EC2C
:104B2000112BFBF7E4FBFBF77BFD0746FBF767FD6B
:104B300041EC190B53EC1A2BFBF780FC53EC182BB0
:104B4000FBF779FC41EC180B53EC1B2B51EC190BC8
:104B5000FBF774FCDFF8C8A241EC100B4FEA1558C4
:104B60000125FA4453EC102B51EC180BFBF760FCB9
:104B7000032DC4E900013DD0C1F30A5005EB4511F6
:104B8000A8EB00001139814234DA0AEB051BB0EEC4
:104B900048AA9BED000BF0EE68AA53EC102B51ECE9
:104BA000190BFBF74BFC41EC1B0B51EC1A0B53ECB4
:104BB0001B2BFBF73DFC41EC180B51EC1A0B53EC93
:104BC000182BFBF735FC53EC1B2BFBF731FC9BED53
:104BD000020B41EC1A0B53EC102B51EC190BFBF7A9
:104BE0002DFC53EC1A2BFBF723FC41EC100B6D1C36
:104BF000B8E70EE0002EA8BF3846BFF628AF94ED08
:104C0000000B51EC100B81F00041C4E90001784227
:104C10001DE7C6F3130040F4801EC6F30A50A0F24D
:104C2000F530471100F01F05C5F12000DDF848B050
:104C300008900020069007900520EC467949002D49
:104C400007EB0002794408BF51F8221009D051F84F
:104C5000223001EB8201AB404A68089922FA01F147
:104C60001943A1FB0E26A1FB0B131A449A4234BF31
:104C70000123002303EB06080CEB8003D3E901A614
:104C80000E448E4234BF0121002192448A4411B166
:104C9000924502D903E0924501D2012100E00021B2
:104CA000C3E901A641444CF82010011EA0F1010007
:104CB000C4DC029800F10050850F0298DDE903671B
:104CC0008000DDF81480FBF79AFC41EC1A0B3046AB
:104CD000FCF7CCF99FED541B53EC112BFBF7AEFB0B
:104CE00041EC1B0B3846FCF7C1F99FED511B53EC0F
:104CF000112BFBF7A3FB41EC180B4046FCF7B6F970
:104D00009FED4D1B53EC112BFBF798FB41EC190B5E
:104D100051EC180B53EC192BFBF7E9FA53EC1B2B56
:104D2000FBF7E5FA53EC1A2BFBF7E1FACDE90801A2
:104D3000002008909DED080B53EC1A2B51EC100B42
:104D4000FBF776FB53EC1B2BFBF772FB53EC182B9A
:104D5000FBF76EFB53EC192BFBF76DFB9FED381B3C
:104D600053EC112BFBF76AFB9FED370B41EC180B53
:104D700053EC102B9DED080B51EC100BFBF75EFB79
:104D800053EC182BFBF7B3FA9FED310B41EC180BEA
:104D900053EC102B9DED080B51EC100BFBF74EFB69
:104DA00053EC182BFBF7A3FA41EC100B139810F0FF
:104DB000004F06D06D4251EC100B81F0004141ECE8
:104DC000100B284684ED000B41E6000000000000B7
:104DD0000000000000000000FB21E93F7CD90240F8
:104DE00000004054FB21F93F3163621A61B4D03DA9
:104DF000FB21F93F000000000000601A61B4D03DC3
:104E00007370032E8A19A33BFB2139410000000077
:104E100083C8C96D305FE43F000000000000E03F40
:104E2000F266000040660000000000000000103E36
:104E3000000000000000103C000000000000103ADC
:104E4000182D4454FB21F93D3326A611460B113C85
:104E500000000054FB21F93D10B52DED040B2DEDA4
:104E6000088B82B0B0EE419AF0EE619A0B9820F078
:104E700000449FED4BABB4F1795F11DA9DED0A0B65
:104E800051EC100BFBF7CCFB002801BFB0EE4A0A37
:104E9000F0EE6A0A02B0BDEC088B04BF04B010BD8E
:104EA0009DED0A0B53EC102B51EC100BFBF7C6FADF
:104EB00041EC180B3C480621B0EE480AF0EE680AB7
:104EC000784400F081F853EC182B51EC100BFBF7F1
:104ED000B5FA9DED0A0B41EC1B0B53EC192B51EC71
:104EE000100BFBF7ABFA41EC190B53EC1B2B51ECFD
:104EF000180BFBF7A3FA53EC192BFBF799FA9FED6C
:104F00002C0B41EC190B53EC102B51EC180BFBF74D
:104F100095FA41EC100B2848844210DA53EC192B17
:104F200051EC100BFBF784FA53EC1A2BFBF783FAC6
:104F300041EC100B02B0BDEC088B04B010BD1F4853
:104F4000A042BCBF9FED1E1B8DED001B06DBA4F530
:104F500000100190002000909DED001B51EC100B03
:104F600053EC112BFBF764FA9DED000B41EC180B91
:104F700053EC102B51EC1A0BFBF75AFA41EC1A0BBD
:104F800053EC192B51EC180BFBF752FA53EC1A2B7C
:104F9000FBF751FA41EC100BCCE7000000000000D9
:104FA000000000000000F03F5C6300000000000013
:104FB000000000000000E03F3333D33F0000E93F32
:104FC000000000000000D23F70B504462DED028BBA
:104FD0004D1E00EBC500B0EE408AF0EE608A90ED09
:104FE000000B35F0060017D053EC182B51EC100BCA
:104FF000FBF724FA41EC100B6D1E04EBC50090ED9D
:10500000001B51EC100B53EC112BFBF770F941EC2A
:10501000100B35F00600E7D1022D36D0042D1CD040
:10502000062D1CBFBDEC028B70BD53EC182B51EC50
:10503000100BFBF703FA94ED0A1B53EC112BFBF753
:1050400056F953EC182BFBF7F9F994ED081B53ECC8
:10505000112BFBF74CF941EC100B53EC182B51ECD6
:10506000100BFBF7EBF994ED061B53EC112BFBF740
:105070003EF953EC182BFBF7E1F994ED040B53ECDC
:10508000102BFBF734F941EC100B53EC182B51ECBF
:10509000100BFBF7D3F994ED021B53EC112BFBF72C
:1050A00026F953EC182BFBF7C9F994ED001B53ECD0
:1050B000112BFBF71CF9BDEC028B41EC100B70BD02
:1050C00031B504462DED040B2DED0A8BB0EE41BA3F
:1050D000F0EE61BA0B989DED0A0B20F00040B0F1A4
:1050E000795F0DDA51EC100BFDF7AEFD042808BF17
:1050F00000F0CAF89DED0A0BBDEC0A8B05B030BD7F
:1051000053EC102B51EC100BFBF798F941EC180BFA
:105110009DED0A0B53EC182B51EC100BFBF78EF99D
:1051200041EC190B2C48B0EE480AF0EE680A052154
:105130007844FFF749FF9FED2ACBB0EE40AAF0EE8E
:1051400060AA9CB353EC1C2B51EC190BFBF776F9BE
:1051500041EC1C0B53EC1A2B51EC190BFBF76EF9BD
:105160009FED210B41EC190B53EC102B51EC1B0B59
:10517000FBF764F953EC192BFBF75AF953EC182B96
:10518000FBF75CF953EC1B2BFBF752F953EC1C2B90
:10519000FBF74EF99DED0A1B53EC112BFBF74BF976
:1051A000BDEC0A8B05B041EC100B30BDFFE753ECB2
:1051B0001A2B51EC180BFBF741F953EC1C2BFBF7A6
:1051C00096F853EC192BFBF739F99DED0A1B53ECBC
:1051D000112BFBF78CF8E3E7EC6100000000000006
:1051E000495555555555C5BF000000000000E03F2A
:1051F0009FED070B10B553EC102B9FED070B51ECF7
:10520000100BFBF78DF941EC100B10BD00000000F6
:105210000000000000000000000000000000F03F5F
:1052200010B553EC102B51EC100BFBF760F841EC70
:10523000100B10BD10B553EC112B51EC100BFBF7FC
:1052400056F841EC100B10BD9FED050B10B553EC5B
:10525000102B51EC100BFBF763F941EC100B10BD58
:1052600000000000000000009FED050B10B553EC9E
:10527000102B51EC100BFBF7E1F841EC100B10BDBB
:1052800000000000000000709FED050B10B553EC0E
:10529000102B51EC100BFBF7D1F841EC100B10BDAB
:1052A000000000000000001002E008C8121F08C142
:1052B000002AFAD170477047002001E001C1121F97
:1052C000002AFBD1704700000149086070470000C8
:1052D000980100202DE9FF5F82B00021DDE9043054
:1052E000020DDDF840B0034318D044F61050A2F28E
:1052F000FF3242431514119801281FD0A5EB0B0073
:10530000401C5FEA000A4FF000064E4FDFF838916C
:10531000B046504615D5CAF1000413E01198012497
:105320004AA3012801D16FEA0B010298119AC0E942
:105330000031C0E9024206B0BDE8F09FCBF10000A9
:10534000DFE704460021404A491842EB0450CDE90A
:10535000001012E0E00707D032463B46404649467F
:10536000FBF76CF88046894632463B4610461946A4
:10537000FBF764F806460F466410002CEAD1DDE91D
:105380000401DDE90023BAF1000F06DAFBF756F855
:1053900042464B46FBF752F805E0FBF7C1F84246A0
:1053A0004B46FBF7BDF804460E460022284BFBF7A0
:1053B0009BF903D84FF0FF30014607E00022254B50
:1053C00020463146FAF793FFFBF7F4FB102409E07F
:1053D000002C0ADB0A220023FAF7F2FE039B30328C
:1053E0001A55641E50EA0102F2D1641C039AC4F1FA
:1053F00011031444119A012A03D0012208430DD14C
:105400000AE0084304D000204FF0110B119072E71E
:10541000A3EB0B056D1E0DE05B4504DD4FF00002B4
:1054200005F1010504E003DA4FF00002A5F10105E2
:10543000002AECD002981199C0E90231C0E9004578
:1054400079E70000000014400000F03F3000000049
:105450000000F0430000E03F30380A2801D201206C
:1054600070470020704700002DE9FF4F95B09B4624
:105470008946064600250FE2252877D100242746D5
:10548000F84A0121059400E0044316F8013F203B4F
:1054900001FA03F01042F7D130782A2811D06FF0CA
:1054A0002F033078A0F13002092A16D8059A44F06B
:1054B000020402EB820203EB42021044761C0590C8
:1054C000EFE759F8042B0592002A03DA504244F41E
:1054D0000054059044F00204761C30782E2816D132
:1054E00016F8010F44F004042A280DD06FF02F02A3
:1054F0003078A0F13003092B09D807EB870302EBC2
:105500004303C718761CF3E759F8047B761C307800
:105510006C280FD006DC4C2817D068280DD06A28DC
:1055200014D104E0742810D07A280FD10DE044F48F
:1055300000140AE044F4801401E044F4401472784A
:10554000824202D104F58014761C761C30786628DD
:105550000BD013DC582877D009DC002875D04528FB
:10556000F6D04628F4D047281AD19DE118E06328E8
:1055700035D0642879D0652812D195E1702873D090
:1055800008DC6728F1D069286FD06E280DD06F280D
:1055900006D1B5E073282CD0752875D0782874D042
:1055A0005A46179990476D1C75E1C4F302500228C2
:1055B00009D003280DD0D9F8001004280DD00D60B3
:1055C00009F1040967E1D9F80010EA17C1E90052AE
:1055D000F6E7D9F800100D80F2E70D70F0E719F842
:1055E000041B8DF8001000208DF80100EA46012010
:1055F00003E059F804AB4FF0FF3061074FF00001B2
:1056000002D40DE008F101018846B9420FDA804565
:10561000F8DB1AF808100029F4D108E008F10101BC
:1056200088468142FADB1AF808100029F6D105985D
:105630005B46A0EB080721463846179A00F094FA1B
:10564000284400EB080507E04DE029E10DE01AF8D9
:10565000010B5A4617999047B8F10108F7D25B46FB
:1056600021463846179A13E142E00A220092C4F319
:1056700002524FF0000A022A08D059F804CB032A3C
:105680004FEAEC710AD00DE029E02AE009F10701A8
:1056900021F00702F2E802C1914609E00FFA8CFC02
:1056A0004FEAEC71042A03D14FFA8CFC4FEAEC71FB
:1056B000002907DA0A460021DCF1000C61EB020147
:1056C0002D2202E0220504D52B228DF80420012290
:1056D00003E0E20701D02022F7E7904659E00A21D3
:1056E00002E010220DE010214FF0000A00910BE0C3
:1056F00010224FF0000A44F004040827009203E04F
:1057000008224FF0000A0092C4F30252022A05D088
:1057100059F804CB0021032A08D009E009F1070158
:1057200021F00702F2E802C1914605E01FFA8CFC65
:10573000042A01D10CF0FF0C4FF00008220728D5F5
:10574000702806D0009B83F0100353EA0A0305D0AB
:105750000EE040228DF80420012208E05CEA0102FC
:1057600006D030228DF804208DF8050002229046E4
:10577000009B83F0080353EA0A030AD15CEA0102A2
:1057800001D1620705D530228DF804204FF00108C1
:105790007F1E582804D034A003900EA802900DE07C
:1057A00036A0F9E753466046009AFAF709FD8446A9
:1057B0000398825C0298401E029002705CEA01002D
:1057C000F0D1029806A9081A00F1200A600702D554
:1057D00024F4803400E00127574502DDA7EB0A00DE
:1057E00000E0002000EB0A01009005984144401AB7
:1057F0000590E00306D45B462146179A059800F011
:10580000B3F90544002706E001A85A46C05D179980
:1058100090476D1C7F1C4745F6DBE0030CD55B46CB
:105820002146179A059800F09FF9054404E03020BE
:105830005A46179990476D1C0099481E0090002900
:10584000F5DC08E0029802995A460078491C02915A
:10585000179990476D1CBAF10001AAF1010AF1DC19
:1058600065E1000009280100303132333435363724
:10587000383961626364656600000000303132339C
:10588000343536373839414243444546000000003C
:1058900000F058F90544761C307800287FF4ECAD10
:1058A00019B02846BDE8F08F620700D4062709F139
:1058B000070222F0070CFCE80223E14603F000484F
:1058C0005FEA080C02D00FF2702C0DE05FEA045C76
:1058D00002D50FF2682C07E05FEAC47C02D00FF219
:1058E000602C01E0AFF2700C4FF0FF3823F0004362
:1058F000CDF850C065280CD006DC452809D04628D4
:105900001DD047283DD13DE0662818D067287ED1BC
:1059100038E00021112F01DB112000E0781CCDE9D7
:10592000000106A90EA8FFF7D5FCDDE90F010E9ACC
:1059300003910021009207F1010A04914DE04FF01C
:1059400000400097CDE9011006A90EA8FFF7C2FCA0
:10595000DDE90F0203920E9B11990022DDF80CA0E5
:105960000093049211B9791C00EB010AB7EB0A000D
:1059700004D4C0F1FF3007F1010A0490AAEB07003C
:10598000019044E0012F00DA01270021112F01DDF1
:10599000112000E03846CDE9000106A90EA8FFF766
:1059A00099FCDDE90F010E9A039100210491009208
:1059B000BA4621070CD40399514500DA8A46BAF158
:1059C000010F05DD009AAAF10101515C302908D0D0
:1059D000B84202DA10F1040F06DA0121CDE9011014
:1059E00015E0AAF10101E9E7002805DC049901446A
:1059F0000491AAEB000102E0411C514500DD8A46FA
:105A00000499401A401C01904FF00040029020077A
:105A100004D40198504501DBCDF8048000208DF8B6
:105A20004F0002980DF14F07B0F1004F25D02B2009
:105A30000E9002984FF0020800280CDA40420290C3
:105A40002D200E9007E00A210298FAF781FE3031EE
:105A5000029007F8011DB8F10001A8F10108F2DC7D
:105A600002980028EFD1791E0E980870307800F067
:105A7000200040F0450007F8020D12A8C01B00F1FD
:105A800007081498007800B1012000EB0A01019882
:105A900001EBE07105984144401A401E0590E00377
:105AA00006D45B462146179A059800F05DF8054438
:105AB0001498007818B15A46179990476D1CE00366
:105AC00024D55B462146179A059800F04DF8054409
:105AD0001CE00498002807DBDDE90301884203DDB0
